:020000021000EC
:04E000000C9475F017
:020000021000EC
:04E048000C941EF422
:020000021000EC
:14E0940020415443414E424C2076312E302E302C2031322011
:14E0A8004D617220323030382C2048656E6B204226422C2072
:14E0BC004E494B4845462000008210801048B048C088E041B0
:14E0D000E081C0880000000000000000000000000000000093
:05E0E4000000008003B4
:020000021000EC
:14E0EA0001E005BF02E005BFCFEFD0E1CDBFDEBFCE51D04010
:14E0FE000AEA08830024E7E0F1E013E0EC3DF10711F001922B
:14E11200FBCF0083E2EEF0EEA0E0B1E010EE01E00BBFE93E1D
:14E12600F10721F0D89531960D92F9CF0E94C2F0FFCF0027F8
:14E13A002FB627FE01C001E0F894A89588E1809360008FE011
:14E14E008093600088E080936000002309F078940895002783
:14E162002FB627FE01C001E0F89488E18093600087E080931B
:14E176006000002309F078940895A89508952C970E949CF0A5
:14E18A0064B760FF02C041E001C04427662319F4AA24A3945D
:14E19E0001C0AA24862F8C7119F0CC24C39401C0CC244423C4
:14E1B20019F4AA2009F4D5D0442785B7816085BF82E085BF6E
:14E1C600789401E00E94D3F12090D303222001F44FE72224B9
:14E1DA0028866E8388E28C8381E88A838EEF888320E50027EF
:14E1EE000E9490F3222420928100B09AAA2009F0AFC082EC95
:14E202008093850087EF8093840085E080938100A5C00E9463
:14E21600C0F00E94C8F30E949DF20023B1F4453009F40EC0AE
:14E22A00842F8077803709F44FE7842F8F708F3011F44FE7A0
:14E23E0003C040FF01C045E0B09B8AC0B09A8BD087C09E01C4
:14E25200275F3F4F8E01055F1F4F0E94B4F2C02EE42EFF24D8
:14E26600C7018430E0E09E0759F18530E0E09E0759F0843062
:14E27A00E0E09E070CF46EC0C7018F37E0E09E0709F068C0E9
:14E28E00EC2CFF24C7018430E0E09E0729F08730E0E09E072B
:14E2A20009F010C08B85883009F058C009851A850E945AF8A5
:14E2B600E02E002309F450C02224209281004CC0DD24CC20A4
:14E2CA0011F4DD2009F046C0E985FA85C1808B85823009F056
:14E2DE003FC02090D303C21419F0CC2009F038C0E985FA85FE
:14E2F200C080DD24C6018130E0E09E07B9F08230E0E09E073A
:14E30600A9F08130E0E09E073CF1C6018038E0E09E0771F0E2
:14E31A008138E0E09E0761F08238E0E09E0709F44ECF18C06F
:14E32E0045E016C044E014C04FE712C014D080E8888722243F
:14E342002E828AEA8C838A838EEF888320E600270E9490F3AD
:14E3560005E00E943EFA16CF5ACF2C9608954A935A93222477
:14E36A002BBE44275527FA0133968691803F78F40E94B0F087
:14E37E0022242092810085B7816085BF85B78C7F85BFE0E066
:14E39200F0E0099402C0222424BE81E08BBF59914991089514
:14E3A6001A930A930E946CFA8091DB008F778093DB00809120
:14E3BA00D8008D7F8093D8002090D90022FCFCCF8091D80025
:14E3CE0081608093D8000A84002031F02224209209012092EC
:14E3E200D20305C08091D2038F7E8093D20307E011E00E9438
:14E3F60033F80093D3038FE7801718F48FE18093D303C090BD
:14E40A00D303C694C694C694E090D303EE0CEE0CEE0CEE0CEC
:14E41E00EE0C44272FC084EC90EEE42FFF27EE0FFF1FE80F5D
:14E43200F91FA6906627442331F0413021F0473011F0AC28A5
:14E446006E29842F8F7082958093ED0022242092EF002092C9
:14E45A00EE00A092F3006093F2002092F1002092F0008FEFF3
:14E46E008093F70080EE8093F6002092F5002092F4004395F4
:14E482004F3078F282E08093E2008EE08093E30088E1809366
:14E49600E4008FEF8093DE008FE78093DF000A840020E9F030
:14E4AA0066270AC08BE0869FF0018CE191E0E80FF91F8FEF1B
:14E4BE00808363956034A0F322242092110120920F012092AA
:14E4D2000E0120920D0120920C0120920B0120920A014427C2
:14E4E60018C0842F8F7082958093ED0085EC90EEE42FFF2759
:14E4FA00EE0FFF1FE80FF91F6691862F807C803829F4222421
:14E50E002092EF006093EF0043954F3030F382EE8093DB009E
:14E522008091D80082608093D8002224209210010E9461FA29
:14E53600229608950E9477FA8091DB008F778093DB008DD22A
:14E54A0080E0801718F441E050E002C044275527A42E82EE7E
:14E55E008093DB000A2D0C947CFA0E946CFA7901A801809132
:14E57200DB008F778093DB0074D2A02E80E0801708F033C0D0
:14E5860027D2602F8BE0869F600182E191E0C80ED91EF60170
:14E59A002084FA012082F6014185F701D182C082F601028564
:14E5AE00A1D2E02E063008F040E28FEFF6018287AA94A0929A
:14E5C2000C01A0920B01A0920A01862F8F5F8F73682F60938E
:14E5D6000F0160930E0160930D01809110018F5F80931001EA
:14E5EA0001C040E282EE8093DB00042F0C9461FA0E9453FABF
:14E5FE000E946CFAAE84BF848EE00A84801508F478C08091B6
:14E61200DB008F778093DB000A85F1D0002309F58A858F70A6
:14E6260082958093ED00EE2408C0EE2DFF27EA0DFB1D2080FF
:14E63A002092FA00E3940C84E014A8F322242092EF0085EC32
:14E64E0090EEEA85FF27EE0FFF1FE80FF91F26902092EF0024
:14E662004BC068E046C0062FCAD0002309F040C084EC90EE72
:14E67600EA85FF27EE0FFF1FE80FF91FC69044272090D3038A
:14E68A00269426942694C2282090D303220C220C220C220C26
:14E69E00220C4229862F8F7082958093ED0022242092EE001E
:14E6B200C092F3004093F200EE2408C0EE2DFF27EA0DFB1D20
:14E6C60020802092FA00E3940C84E014A8F322242092EF0077
:14E6DA0085EC90EEEA85FF27EE0FFF1FE80FF91F2690209216
:14E6EE00EF0004C063956F3008F4B7CF82EE8093DB000E944C
:14E7020061FA24960895239722242A82CE0102969983888317
:14E7160021E005E06FDF239608950E9481FAA22EC02E2A97C9
:14E72A00CA82AB822090D203088C20282092D2032C8280E864
:14E73E0090E0209005013324282639262092050108880D82C6
:14E752000A880E820C880F820E880886822D80788987442726
:14E7660004C001E00E943EFA439502E046D0002311F04233B7
:14E77A00B0F3CE0102969983888328E002E038DF2A960C94F9
:14E78E0088FAAA92299780E0209009018215E0F420900201C1
:14E7A200A0900101A20C20900301A20C20900401A20C80E15D
:14E7B6008887209000012E82209009012C82AA82222428825B
:14E7CA0021E80027A8DF2224209209018091110181708130BD
:14E7DE0069F480E1888722242E822C822A82288221E800E176
:14E7F20096DF2224209211012996A99008954A936A93602F96
:14E806004427683050F401E0162F0E948FFA2090DC00202298
:14E81A0061F041E00AC0685001E0162F0E948FFA2090DD0018
:14E82E00202209F041E0042F6991499108950A921A922A92D2
:14E842003A924A925A926A927A928A929A920A931A932A93D7
:14E856003A938A939A93AA93BA93EA93FA930FB60A920E9400
:14E86A006CFA21974091DA00442371F1842F8F7429F0809128
:14E87E0009018F5F8093090146FF05C0809100018F5F809354
:14E89200000143FF05C0809101018F5F8093010142FF05C04E
:14E8A600809102018F5F8093020141FF05C0809103018F5F3E
:14E8BA008093030140FF05C0809104018F5F809304018FE79D
:14E8CE008093DA002090EC00288260C0688162956F7008809C
:14E8E2000092ED00BED0A02E0F33C9F48091DB008F77809343
:14E8F600DB0081E08093110122242092EE002092EF0085ECB5
:14E90A0090EEE62FFF27EE0FFF1FE80FF91F26902092EF00BF
:14E91E0041C05AD0402F4A0D4F738BE0849F600182E191E06F
:14E93200C80ED91E8091EF008F70E82E2090F00022FC0CC065
:14E94600442708C0E42FFF27EC0DFD1D2090FA00208243951A
:14E95A004E15B0F3F6016187E08622242286A394A0920C01FA
:14E96E00A0920B01A0920A012092EE002092EF0085EC90EEEA
:14E98200E62FFF27EE0FFF1FE80FF91F26902092EF00209015
:14E99600EC0028828881803F09F09CCF21960E9461FA09905E
:14E9AA000FBEF991E991B991A9919991899139912991199192
:14E9BE0009919990899079906990599049903990299019907A
:14E9D20009901895AA924A9320900E0130900F01321421F4E8
:14E9E600232C20920D0136C020900D0130900F01321421F42F
:14E9FA00232C20920E012CC020900D0130900E01321419F42D
:14EA0E0020920F0123C0002720E8442717C0AA2420900F0150
:14EA2200222209F0A39420900E01222209F0A39420900D017B
:14EA3600222209F0A394000F81E08A1508F403952695439522
:14EA4A00483038F300930F0100930E0100930D0100910F018E
:14EA5E004991A9900895AA924A9320900B0130900C0132140C
:14EA720021F4232C20920A0136C020900A0130900C013214AB
:14EA860021F4232C20920B012CC020900A0130900B013214A1
:14EA9A0019F420920C0123C0002720E8442717C0AA242090CA
:14EAAE000C01222209F0A39420900B01222209F0A3942090F3
:14EAC2000A01222209F0A394000F81E08A1508F40395269563
:14EAD6004395483038F300930C0100930B0100930A01009143
:14EAEA000C014991A9900895802F86958575081B802F8373CF
:14EAFE00069506950373080F802F8F70902F92959F709F708F
:14EB1200092F080F08950E946CFAB80141E0FB01A080CA2C0F
:14EB2600DD24C6018C34E0E09E0709F4D2C08CE48C159D05AC
:14EB3A000CF436C0C6018033E0E09E0709F468C180E390E0F9
:14EB4E008C159D0594F0C6018032E0E09E0709F4E2C08032BD
:14EB6200E0E09E070CF4F3C1C6018832E0E09E0709F4FBC0E8
:14EB7600ECC1C6018034E0E09E0709F454C080E490E08C1578
:14EB8A009D053CF0C6018833E0E09E0709F48EC1DAC1C60114
:14EB9E008834E0E09E0709F447C0D3C1C6018C3AE0E09E07B8
:14EBB20009F482C18CEA90E08C159D05CCF0C6018835E0E0E6
:14EBC6009E0709F446C188E590E08C159D053CF0C6018035CA
:14EBDA00E0E09E0709F452C1B6C1C601803AE0E09E0709F458
:14EBEE00FEC0AFC1C601803CE0E09E0709F4E2C080EC90E082
:14EC02008C159D053CF0C6018B3BE0E09E0709F49FC19DC1E2
:14EC1600C601813DE0E09E0709F44AC0823DE0E09E0731F0B4
:14EC2A0092C1FB0123802092DB038EC18A2D883499F4209055
:14EC3E00DB033324FB01E380FF24FE2CEE24E228F328228008
:14EC52003324C180DD24DC2CCC24C228D32811C0FB012280C9
:14EC66003324E380FF24FE2CEE24E228F32821803324C09014
:14EC7A00D903D090DA03C228D3288FEF9FE78C159D0538F019
:14EC8E00CC0CDD1C970186010E94DAF95BC180E090E8160102
:14ECA200281A390A220C331C6101970181010E94ECF94EC14A
:14ECB600FB012280332441805524542C44244228532850926C
:14ECCA00DA034092D90322242092D8033DC1FB0122803324E5
:14ECDE00C180DD24DC2CCC24C228D3288FEF9FE78C159D05BC
:14ECF20048F0CC0CDD1C86010E9496F986010E94B2F926C192
:14ED060080E090E81601281A390A220C331C610181010E9482
:14ED1A00A6F986010E94C8F917C1FB0122803324C180DD244D
:14ED2E00DC2CCC24C228D3288FEF9FE78C159D0540F0CC0CA5
:14ED4200DD1C86010E9428FAFB01038301C180E090E8160146
:14ED5600281A390A220C331C610181010E9433FAFB01038372
:14ED6A00F3C0FB0122803324C180DD24DC2CCC24C228D328CE
:14ED7E008FEF9FE78C159D0560F0C601880F991F01966C01D0
:14ED92008C010E9428FAE02EFB01E382D9C080E090E8160125
:14EDA600281A390A220C331CC10101966C018C010E9433FA35
:14EDBA00E02EFB01E382C8C0FB0122803324C180DD24DC2C0F
:14EDCE00CC24C228D328C6018030A0E19A0728F423818C0176
:14EDE2000E9440F8B5C04427B3C0FB0122803324C180DD24B9
:14EDF600DC2CCC24C228D328C6018030E0E19E0738F48C0196
:14EE0A000E9433F8C02EFB01C3829EC044279CC0FB01C28095
:14EE1E00DD24CC2011F4DD2051F0C6018130E0E09E0749F09A
:14EE32008230E0E09E0749F00CC08EE1FB01838387C087E988
:14EE4600FB01838383C081E8FB0183837FC044277DC0FB0125
:14EE5A002180222031F40E9407FAC02EFB01C38273C0FB019B
:14EE6E008181883039F403E00E941BFAC02EFB01C38268C0B8
:14EE8200442766C0FB012180222039F400270E941BFAC02E13
:14EE9600FB01C3825BC0FB018181883039F402E00E941BFA90
:14EEAA00C02EFB01C38250C044274EC044274CC0FB01C180E8
:14EEBE00DD24C6018038E0E09E07E9F080E88C159D0534F0B3
:14EED200C6018335E0E09E0781F037C0C601803EE0E09E07F6
:14EEE60051F1803EE0E09E0774F1C6018F3FE0E09E0709F15A
:14EEFA0028C083E5FB01828327C08FEF9FE72090D90330907C
:14EF0E00DA038215930530F08101000F111F0E9496F918C0F9
:14EF220080E090E80091D9031091DA03081B190B000F111F92
:14EF36000E94A6F90BC0FB018381836CC82E082F0E94FAF90A
:14EF4A0003C0442701C044274423F1F08A2D803251F08832AD
:14EF5E0041F0803A31F0803321F0883511F0803589F48091CE
:14EF720006018F5F83708093060184ED93E0E0910601FF2707
:14EF8600E80FF91FDB0113962C902082042F0C9461FA0E94B5
:14EF9A006EFA5801442735C0242E3324220C331C2A0C3B1C8F
:14EFAE00F10120803324E180FF24FE2CEE24E228F3282090D1
:14EFC200D8033324C090D903D090DA03C228D328822D8F5F1E
:14EFD6008093D8038FEF9FE78C159D0538F0CC0CDD1C970161
:14EFEA0086010E94DAF90CC080E090E81601281A390A220CA9
:14EFFE00331C6101970181010E94ECF94395423008F4C8CFD0
:14F0120001E00C9458FA84ED93E0E0910601FF27E80FF91F86
:14F026002080F801208208954A93442715C0242E3324E091C7
:14F03A000601FF273196E20DF31DE370F07084ED93E0E80F41
:14F04E00F91F2080E42FFF27E00FF11F20824395443048F395
:14F0620049910895F999FECFC8018070892F992782BDC8018B
:14F07600907081BDF89A00B508954A93F999FECFC80180706F
:14F08A00892F992782BDC801907081BD20BD2FB627FE03C00A
:14F09E00F89441E001C04427FA9AF99A442309F07894499118
:14F0B20008951A930A930E946CFA289700240C82EA89FB89F3
:14F0C60020802B82822D807E8A83EA89FB8921802E82EA8974
:14F0DA00FB8922802D82EA89FB8923802F82EE2462E0CC24BE
:14F0EE008A81803409F098C02224EA89FB89248225822682CC
:14F102002782AA244D8155274031E0E05E0759F04031E0E028
:14F116005E070CF473C04F31E0E05E0709F43EC06DC04E81B1
:14F12A0055274030450799F04130E0E05E07B9F04230E0E09F
:14F13E005E07D1F04030E0E05E070CF428C04A30E0E05E077B
:14F1520009F418C022C02224EA89FB89248225822682278217
:14F166004FC02224EA89FB89248283E0A82E48C02224EA89A9
:14F17A00FB89248225822682278240C081E4EA89FB898483FC
:14F18E0082E4858381E3868380E3878335C0EE24E39432C0B5
:14F1A2008E81803551F50F80002051F482E0EA89FB898483FB
:14F1B60083E0A82E002403940C8222C08F81813011F082306D
:14F1CA00A1F4002403940C828F81813039F40A891B890C5FC3
:14F1DE001F4F0E940CF810C00A891B890C5F1F4F0E9417F878
:14F1F20009C0EE24E39469E005C0EE24E39402C0EE24E394D5
:14F20600EE2071F48A2D880F880F8364EA89FB8980830F01AB
:14F21A001982088228E003E00E94FDF28A81803209F050C079
:14F22E000B8001FE4AC0AD80BB24C5018F31E0E09E0709F048
:14F2420032C08E81803561F58F81813089F4002403940C8225
:14F256000A891B890C5F1F4F0E948CF5002319F5EE24E394B7
:14F26A0069E0CC24C3941DC08F81823089F4002403940C829B
:14F27E000A891B890C5F1F4F0E94CCF7002379F4EE24E394EE
:14F2920069E0CC24C39409C0EE24E39469E005C0EE24E394EF
:14F2A60002C0EE24E394EE2079F480E6EA89FB8980830F011E
:14F2BA001982088228E003E00E94FDF203C0EE24E39461E012
:14F2CE008A81803419F0803209F00BC0EE2049F0CC2039F092
:14F2E2000A881B8819820882262F06E006D00C8128960E94C0
:14F2F60061FA229608950E9481FAA22EC02E22974885598515
:14F30A0080E8FA018083C782A68222242582248259834883DE
:14F31E0028E003E00E94FDF222960C9488FA1A930A93E02F2C
:14F33200F12F22242BBE83E087BFE89527B620FCFDCF81E02C
:14F346008BBF229608951A930A93E02FF12F83E087BFE89575
:14F35A0027B620FCFDCF229608951A930A93E02FF12F2224C6
:14F36E002BBE85E087BFE89527B620FCFDCF81E187BFE89590
:14F3820027B620FCFDCF81E08BBF229608951A930A93E02F59
:14F39600F12F85E087BFE89527B620FCFDCF81E187BFE89531
:14F3AA0027B620FCFDCF229608950E9453FAE02FF12F022EE7
:14F3BE00132E22242BBE81E087BFE89527B620FCFDCF81E081
:14F3D2008BBF249608950E9453FAE02FF12F022E132E81E096
:14F3E60087BFE89527B620FCFDCF249608951A930A93002EBC
:14F3FA00E1E0F0E089E087BFE89527B620FCFDCF2296089528
:14F40E00E1E0F0E089E087BFC895002D08950E9453FA012E65
:14F42200E02FF0E089E087BFE89527B620FCFDCF24960895AF
:14F436001A930A93AA92E02FF0E089E087BFC895A02C0A2D4E
:14F44A00A990229608951A930A93AA92E02FF12FC895A02C42
:14F45E000A2DA990229608951A930A93AA92E02FF12FD895B3
:14F47200A02C0A2DA99022960895222424BC80916E008E7F43
:14F4860080936E00202E220C220C3324321836BC85E084BD0E
:14F49A00A89BFECF222424BCA89A08953A932A931A930A9375
:14F4AE000895A990B990C990D990E990F99049915991089506
:14F4C200A990B990C990D990E990F990499159916991799128
:14F4D60008957A936A935A934A93FA92EA92DA92CA92BA9295
:14F4EA00AA9208955A934A93BA92AA920895A990B9904991EA
:14F4FE00599108955A934A93DA92CA92BA92AA920895A99083
:14F51200B990C990D990499159910895112319F0000F1A957E
:04F52600FBCF08957A
:00000001FF
